S01200004C6162315F496E74726F2E7372656367
S113000050140020450D0000410D0000410D00007A
S1130010410D0000410D0000410D000000000000F2
S1130020000000000000000000000000410D00007E
S1130030410D000000000000410D0000410D0000D2
S1130040410D0000410D0000410D0000410D000074
S1130050410D0000410D0000410D0000410D000064
S1130060410D0000410D0000410D0000410D000054
S1130070410D0000410D0000410D0000410D000044
S1130080410D0000410D0000410D0000410D000034
S1130090410D0000410D0000410D0000410D000024
S11300A0410D0000410D0000410D0000410D000014
S11300B0410D0000410D0000410D0000410D000004
S11300C0410D0000410D0000410D0000410D0000F4
S11300D0410D0000410D0000410D0000410D0000E4
S11300E0410D0000410D0000410D0000410D0000D4
S11300F0410D0000410D0000410D0000410D0000C4
S1130100410D0000410D0000410D0000410D0000B3
S1130110410D0000410D0000410D0000410D0000A3
S1130120410D0000410D0000410D0000410D000093
S1130130410D0000410D0000410D0000410D000083
S1130140410D0000410D0000410D0000410D000073
S1130150410D0000410D0000410D0000410D000063
S1130160410D0000410D0000410D0000410D000053
S1130170410D0000410D0000410D0000410D000043
S113018010B5054C237833B9044B13B10448AFF3CD
S113019000800123237010BD300400200000000003
S11301A0840F0000084B10B51BB108490848AFF391
S11301B000800848036803B910BD074B002BFBD02F
S11301C0BDE81040184700BF0000000034040020C0
S11301D0840F0000840F00000000000070B483B09E
S11301E0EFF31083B3FA83F35B09019372B6BFF3A1
S11301F05F8F00220E4B1A70019E83000D4D55F83F
S11302002020012404FA01F11143203303F47F7305
S113021043F02A43084A936545F8201026B1044B5D
S11302201C70BFF35F8F62B603B070BC704700BF31
S11302300000002020000E4000000E4070B483B087
S1130240EFF31083B3FA83F35B09019372B6BFF340
S11302505F8F00220E4B1A70019E83000D4D55F8DE
S11302602020012404FA01F122EA0101203303F4DD
S11302707F7343F02A43084A936545F8201026B15A
S1130280034B1C70BFF35F8F62B603B070BC704742
S11302900000002020000E4000000E4030B583B066
S11302A00446EFF31083B3FA83F35B09019372B648
S11302B0BFF35F8F00220B4B1A70019D0A4B9B6AA0
S11302C01BB905210120094B98472DB10122054B8B
S11302D01A70BFF35F8F62B621460220034B984722
S11302E003B030BD0000002000000E40DD0100001E
S11302F010B582B0014602200F4B9847EFF31083EC
S1130300B3FA83F35B09019372B6BFF35F8F0022E4
S11303100A4B1A70019C0A4B9B6A1BB905210120E8
S1130320054B98472CB10122044B1A70BFF35F8F21
S113033062B602B010BD00BF3D0200000000002004
S113034000000E4030B583B00446EFF31083B3FAD7
S113035083F35B09019372B6BFF35F8F00220B4BEB
S11303601A70019D0A4BDB6A1BB906210120094B57
S113037098472DB10122054B1A70BFF35F8F62B607
S113038021460320034B984703B030BD00000020F2
S113039000000E40DD01000010B582B001460320CC
S11303A00F4B9847EFF31083B3FA83F35B09019380
S11303B072B6BFF35F8F00220A4B1A70019C0A4B7E
S11303C0DB6A1BB906210120054B98472CB1012299
S11303D0044B1A70BFF35F8F62B602B010BD00BF4A
S11303E03D0200000000002000000E4008B5B34BA1
S11303F0984200F05A816AD8A3F5A023984200F0ED
S113040013812FD8A3F58033984200F0F28014D8DA
S1130410A3F58033984200F0D28004D8B0F1402F85
S113042000F0C98008BDA64B984200F0CC8003F5CB
S11304308043984200F0D28008BDA24B984200F05D
S1130440E08005D8A3F57053984200F0D68008BD2B
S11304509D4B984200F0D98003F5F843984200F090
S1130460D88008BD994B984200F0078115D8A3F5B0
S11304708033984200F0EE8005D8A3F5804398427B
S113048000F0DD8008BD924B984200F0EE8003F549
S11304908043984200F0ED8008BD8E4B984200F0F6
S11304A0F8800AD8A3F50043984200F0EA8003F5E7
S11304B08043984200F0E98008BD874B984200F0E1
S11304C0EC8003F58043984200F0EB8008BD834B39
S11304D0984200F04D8134D8A3F57C33984200F063
S11304E0278115D8A3F50433984200F00D8105D86F
S11304F0A3F58043984200F0DC8008BD784B984215
S113050000F0068103F58063984200F0098108BD7C
S1130510744B984200F020810AD8A3F540539842C6
S113052000F00A8103F50053984200F00D8108BDE4
S11305306D4B984200F0188103F52043984235D062
S113054008BD6A4B984200F02C8115D8A3F5784376
S1130550984200F0178105D8A3F58063984200F013
S11305600C8108BD624B984200F0118103F5806351
S1130570984200F0118108BD5E4B984200F0208142
S11305800AD8A3F50063984200F0108103F5806354
S1130590984200F0108108BD574B984200F0158135
S11305A003F58063984200F0158108BD09210120FC
S11305B0524B984708BD0020514B984708BD012075
S11305C04F4B984708BD02204D4B9847434B1A6C3C
S11305D042F055024B4999651A6408BD0320484B03
S11305E098473E4B1A6C42F05502464999651A6485
S11305F008BD0420424B984708BD0520404B98474E
S113060008BD06203E4B984708BD07203C4B984741
S113061008BD08203A4B9847304B1A6C42F004024C
S1130620384999651A6408BD0920354B98472B4B06
S11306301A6C42F00402334999651A6408BD0A2011
S11306402F4B9847254B1A6C42F004022D499965AB
S11306501A6408BD0B202A4B9847204B1A6C42F0B1
S11306600402284999651A6408BD0C20244B984754
S113067008BD0D20224B984708BD0E20204B9847FB
S113068008BD0F201E4B984708BD10201C4B9847EF
S113069008BD11201A4B984708BD1220184B9847E3
S11306A008BD1320164B984708BD1520144B9847D6
S11306B008BD1620124B984708BD00BF00800740B4
S11306C00000014000C0014000C40140000004409B
S11306D0008003400080064000C0064000000E4039
S11306E000000A4000500A4000600A4000000F4029
S11306F0000C0E40000C0F4000100F40DD01000004
S11307009D020000400000AA1720354B984708BD01
S113071001210846334B98470020334B984708BDC6
S1130720022101202F4B984701202F4B984708BDE9
S113073002202D4B984708BD00210120294B9847E2
S11307400320294B984708BD04210120254B9847D5
S11307500420254B984708BD03210120214B9847CD
S11307600520214B984708BD06201F4B984708BD1C
S1130770002104201B4B984708BD01210420194B7C
S1130780984708BD02210420164B984708BD032151
S11307900420144B984708BD04210846114B984780
S11307A008BD002105200F4B984708BD01210520F5
S11307B00C4B984708BD022105200A4B984708BDF9
S11307C003210520074B984708BD04210520054B4C
S11307D0984708BD05210846024B984708BD00BF4D
S11307E09D020000DD0100004503000008B5B44B84
S11307F0984200F030816AD8A3F5A023984200F013
S1130800FE802FD8A3F58033984200F0E48014D8FA
S1130810A3F58033984200F0D28004D8B0F1402F81
S113082000F0C98008BDA74B984200F0CC8003F5C6
S11308308043984200F0CB8008BDA34B984200F05F
S1130840D28005D8A3F57053984200F0C88008BD43
S11308509E4B984200F0CB8003F5F843984200F099
S1130860CA8008BD9A4B984200F0DD8015D8A3F5E4
S11308708033984200F0CB8005D8A3F5804398429A
S113088000F0C18008BD934B984200F0C48003F58A
S11308908043984200F0C38008BD8F4B984200F01B
S11308A0CE800AD8A3F50043984200F0C08003F537
S11308B08043984200F0BF8008BD884B984200F006
S11308C0C28003F58043984200F0C18008BD844B88
S11308D0984200F01F8134D8A3F57C33984200F08D
S11308E0D28015D8A3F50433984200F0BC8005D813
S11308F0A3F58043984200F0B28008BD794B98423A
S113090000F0B58003F58063984200F0B48008BD20
S1130910754B984200F0CB800AD8A3F54053984217
S113092000F0B58003F50053984200F0B88008BD8C
S11309306E4B984200F0EA8003F52043984235D08C
S113094008BD6B4B984200F0FE8015D8A3F57843A0
S1130950984200F0E98005D8A3F58063984200F03E
S1130960DE8008BD634B984200F0E38003F58063AA
S1130970984200F0E38008BD5F4B984200F0F2809B
S11309800AD8A3F50063984200F0E28003F580637F
S1130990984200F0E28008BD584B984200F0E7808E
S11309A003F58063984200F0E78008BD0921012027
S11309B0534B9847E4E00020524B9847E0E0012075
S11309C0504B9847DCE002204E4B9847D8E0032078
S11309D04C4B9847D4E004204A4B9847D0E005207C
S11309E0484B9847CCE00620464B9847C8E0072080
S11309F0444B9847C4E00820424B9847C0E0092084
S1130A00404B9847BCE00A203E4B9847B8E00B2087
S1130A103C4B9847B4E00C203A4B9847B0E00D208B
S1130A20384B9847ACE00E20364B9847A8E00F208F
S1130A30344B9847A4E01020324B9847A0E0112093
S1130A40304B98479CE012202E4B984798E0132097
S1130A502C4B984794E015202A4B984790E0162099
S1130A60284B98478CE01720264B984788E00020B5
S1130A70254B984784E002210120214B984701200F
S1130A80214B98477CE002201F4B984778E00021D7
S1130A9001201B4B984703201B4B984770E004210F
S1130AA00120174B98470420174B984768E003210F
S1130AB00120134B98470520134B984760E000BF73
S1130AC0008007400000014000C0014000C4014014
S1130AD000000440008003400080064000C006403F
S1130AE000000E4000000A4000500A4000600A4026
S1130AF000000F40000C0E40000C0F4000100F408F
S1130B003D020000F1020000990300000620234B7F
S1130B10984735E000210420214B984730E001211B
S1130B2004201F4B98472BE0022104201C4B9847BC
S1130B3026E0032104201A4B984721E004210846AB
S1130B40174B98471CE000210520154B984717E0E8
S1130B5001210520124B984712E002210520104B79
S1130B6098470DE0032105200D4B984708E0042128
S1130B7005200B4B984703E005210846084B98478E
S1130B80084B9A6A40F60C731A4206D1054B1A6C4C
S1130B9022F07F02044999651A6408BD9903000094
S1130BA03D02000000000E40400000AA00B589B0DC
S1130BB001A8124B984701AA114906A8114B98475E
S1130BC006A8114B98471148114B9847114B8022A6
S1130BD05A64C3F868215A654FF080729A64C3F866
S1130BE064215A67C3F88820C3F8C820C3F80821D1
S1130BF09A619A629A6309B05DF804FB510C000093
S1130C00000C0F40690C0000190D000000100E408C
S1130C10ED03000000140E4082B00C4B1B6813F46B
S1130C20003F0CBF022308230193019BDB080193BF
S1130C30019B5A1E0192002BFAD140F0AA42034BA9
S1130C401A6040F02A40186002B07047000C0F4050
S1130C500023036043608360102202734373012204
S1130C608273C2730374704770B50C4616460160F4
S1130C7042600846254B9847256815F0080542D17F
S1130C80236813F0010F08D0206820F00100204BE6
S1130C909847236813F0010FFBD1236813F4803FB6
S1130CA008D0206820F48030194B9847236813F447
S1130CB0803FFBD1306873681843B3681843337BB3
S1130CC01B0203F4F8531843737B9B0403F4F803E7
S1130CD00343B27B002A0CBF284680201843F37BD1
S1130CE0002B18BF02252843094DA847206840F46B
S1130CF08030A847236813F4803FFBD02046054B7F
S1130D009847012070BD002070BD00BFED030000B6
S1130D10190C0000ED07000010B50468206820F0ED
S1130D200100054B9847236813F0010FFBD12046BF
S1130D30024B984710BD00BF190C0000ED070000DE
S1130D40FEE700BF08B5194B194A9A4203D0194B64
S1130D50164A9A4204D3184B184A9A420FD31AE0FF
S1130D601249174B5B1A23F003030433104A13444C
S1130D7052F8040B41F8040B9A42F9D1EBE7114BFA
S1130D80114AD21A22F003021A44043B002143F808
S1130D90041B9342FBD10D4A0D4B23F07F03936058
S1130DA00C4B98470C4B9847FEE700BF000000200F
S1130DB0840F0000300400204C0400203004002084
S1130DC02F040020340400204F04002000ED00E034
S1130DD0000000001D0E0000DD0D0000F8B50D4BF5
S1130DE09847012214460C491746104680260025D0
S1130DF001E02A46FFE70B6E13F0807F18BF02461E
S1130E00F9D1002AF7D014B94E653C46F1E78E6556
S1130E102C46EEE7AD0B000000140E4070B50F4EEB
S1130E200F4D761BB61018BF002405D0013455F8B9
S1130E30043B9847A642F9D10A4E0B4D761B00F0AD
S1130E408FF8B61018BF002406D0013455F8043BBF
S1130E509847A642F9D170BD70BD00BF6C0F000069
S1130E606C0F0000740F00006C0F0000024B13B1F4
S1130E70024800F005B87047000000008D0E000025
S1130E80002301461A46184600F014B838B5074D39
S1130E90074C2C1BA41005D0013C55F8043D984781
S1130EA0002CF9D1BDE8384000F064B8840F00008C
S1130EB0800F00002DE9F047254C2568D5F84841FE
S1130EC00646884692469946C4B360681F2817DCD4
S1130ED0431C76B104EB80050122C5F888A0D4F840
S1130EE0881182401143022EC4F88811C5F8089174
S1130EF01ED00230636044F820800020BDE8F087F3
S1130F00144B03B34FF4C870AFF300800446D0B160
S1130F10D5F84831002780E88800C5F848413846AC
S1130F200123C4F88871C4F88C71002EE1D0D1E794
S1130F30D4F88C110A43C4F88C21DAE705F5A674B9
S1130F40C5F84841C1E74FF0FF30BDE8F08700BF66
S1130F505C0F0000000000004300000008000020B7
S1130F60F8B500BFF8BC08BC9E4670476D0E000083
S1130F70A5010000F8B500BFF8BC08BC9E46704748
S1070F8081010000E7
S1130F84010000000000000000000000F402002042
S1130F945C030020C40300200000000000000000E3
S1130FA40000000000000000000000000000000039
S1130FB4000000000000000000000000580F0000C2
S1130FC40000000000000000000000000000000019
S1130FD40000000000000000000000000000000009
S1130FE400000000000000000000000000000000F9
S1130FF400000000000000000000000000000000E9
S113100400000000000000000000000000000000D8
S113101400000000000000000000000000000000C8
S113102400000000000000000000000000000000B8
S113103401000000000000000E33CDAB34126DE655
S1131044ECDE05000B0000000000000000000000BE
S11310540000000000000000000000000000000088
S11310640000000000000000000000000000000078
S11310740000000000000000000000000000000068
S11310840000000000000000000000000000000058
S9030D45AA
